:020000040800F2
:10000000E8310020990100082F2B0008D9240008AE
:100010002D2B0008050C0008AD340008000000007E
:1000200000000000000000000000000001010008C6
:100030004F0D00080000000045010008C92E00080F
:10004000B3010008B3010008B3010008B3010008C0
:10005000B3010008B3010008B3010008B3010008B0
:10006000B3010008B3010008B3010008B3010008A0
:100070000D0D0008190D0008B3010008B3010008B8
:10008000B3010008B3010008B3010008B301000880
:10009000B3010008B3010008B3010008510D0008C6
:1000A000B3010008452F0008B3010008B3010008A0
:1000B000B3010008512F0008B3010008B301000884
:1000C000B3010008B3010008B3010008B301000840
:1000D000B3010008B3010008B3010008553400085B
:1000E000B3010008B3010008B3010008DFF80CD029
:1000F00000F0E2FC00480047F1500008E831002021
:10010000224B19680868B0E8F00F80F30988BFF344
:100110006F8F4FF0000080F311884EF00D0E704786
:100120000000000006480068006880F3088862B696
:1001300061B6BFF34F8FBFF36F8F00DF00BF00BF0B
:1001400008ED00E0EFF30980BFF36F8F0F4B1A68E3
:1001500020E9F00F106008B54FF0500080F31188CF
:10016000BFF34F8FBFF36F8F06F0A4FB4FF000007B
:1001700080F31188BDE8084019680868B0E8F00FFE
:1001800080F30988BFF36F8F704700BF1C00002009
:10019000EFF3058070470000064880470648004797
:1001A000FEE7FEE7FEE7FEE7FEE7FEE7FEE7FEE727
:1001B000FEE7FEE7432F0008ED0000082DE9F041BF
:1001C0000024061B254671F1000605DA01240027EC
:1001D000D0EB070067EB0101161E73F1000605DA8C
:1001E0000027D2EB0702012567EB030300F07EFB3B
:1001F00086460E4617469C46AC4204D00025D0EBFE
:10020000050E65EB010624B10020D2EB000760EB80
:10021000030C704631463A466346BDE8F081202A19
:1002200004DB203A21FA02F00021704721FA02F3A0
:10023000D040C2F12002914008431946704740EA7D
:1002400001039B0703D009E008C9121F08C0042A54
:10025000FAD203E011F8013B00F8013B521EF9D23B
:100260007047D2B201E000F8012B491EFBD2704763
:100270000022F6E710B513460A4604461946FFF772
:10028000F0FF204610BD30B504460020034600E0D4
:100290005B1C934203D2E05CCD5C401BF8D030BDC8
:1002A000F0B480EA0102D40F4200B2EB410F02D257
:1002B0000246084611464A0042D0C30DDDB2C1F3E2
:1002C000C752AD1A202D35DAC1F3160141F40002F0
:1002D00004B15242C5F1200602FA06F12A41104447
:1002E000B3EBD05F23D0C4B1012DA0EBC35009DC28
:1002F000F0BC4FF0004202EAC352DBB200F500004E
:1003000000F04FBB400000F1807000EBC350A0F143
:10031000807040EAD170490009E0490841EAC071A3
:10032000A0EBC35000F50000400800EBC350F0BC48
:1003300000F02EBB6142012202EB4101001BF6E7F7
:10034000F0BC704781F00041AAE780F00040A7E7C9
:1003500080EA010210B502F00043400022D04A00BA
:100360001FD0010E01EB1261C0F35600C2F356021A
:1003700040F4000042F40002A0FB022000047F3998
:10038000140400D0401C50EA124001D44000491E21
:10039000C2B20C0604EBD010401C4008802A02D0E8
:1003A00003E0002010BD20F00100002900DA002049
:1003B000184310BD30B480EA010202F0004530F06D
:1003C000004221F0004013D090B1C30DD40DC2F310
:1003D0001601C0F31600E41A41F4000140F40002D3
:1003E0007D34914201D3641C00E04900002C02DA04
:1003F00030BC002070474FF400000023914201D32D
:10040000891A034340084FEA4101F7D151B19142A3
:1004100002D14FF0004105E002D24FF0010101E0AE
:100420006FF0010103EBC450284430BC00F0B0BAB7
:10043000420005D0C0F3C7525242914201DC002075
:10044000704700EBC15070472DE9FE4F804681EAAE
:100450000300C00F0C46009021F0004123F000453E
:10046000B8EB0200A94105D24046214690461C4601
:100470000B46024623F00040104347D0270DC7F338
:100480000A00C3F30A510290401A019040286BDA27
:10049000C3F3130040F4801B0098924620B1002360
:1004A000D2EB030A63EB0B0B01985946C0F14002F3
:1004B000504600F04CFA06460D4650465946019A01
:1004C00000F054FA10EB08006141002487EA115251
:1004D00084EAE7731A4340D0009A62B3019A012A72
:1004E0004FEA075215DC001B61EB02014FF000429E
:1004F00002EA0752CDE90042001C41F58011324664
:100500002B4600F08BFA03B0BDE8F08F4046214641
:10051000F9E7001B61EB0201001C41F58013001894
:100520005B412018A2F5001747EB030140EAD570A4
:10053000B6196D4111E06D084FEA360645EAC075FF
:100540004FEA0752001B61EB0201001C41F58011CC
:1005500049084FEA30000019514132462B4603B09A
:10056000BDE8F04F00F04BBA009801224000002394
:10057000D0EB020263EBE073009821464FEAE0748F
:10058000B8EB000061EB0401E9E783F000435BE7AF
:1005900081F0004158E72DE9FE4F81EA030404F0A1
:1005A000004421F0004100944FF0000B23F0004381
:1005B00050EA01045ED052EA03045BD0C3F30A544C
:1005C000C1F30A552C44A4F2F3340194A0FB025465
:1005D000C1F3130141F48011C3F3130343F48013F7
:1005E00001FB024400FB034E840A970A44EA81544B
:1005F00047EA8357A4FB076802958D0A05FB078528
:100600004FEA932C04FB0C542705029D4FEA065831
:1006100047EA1637B5EB08056EEB070C870E920E0E
:1006200047EA811742EA8312A7FB0201B6EB0B01EE
:1006300064EB00042B0D43EA0C335E1844EB1C50B2
:10064000DA465146E7FB0201C5F313044FEA0B33C8
:1006500043EA14534FEA0432019C43EA0603A4F12F
:100660000C040294009CCDE900B400F0D7F903B06B
:10067000BDE8F08F00200146F9E72DE9F04D81EA51
:10068000030404F0004B21F0004514464FF0000A2B
:1006900023F0004150EA050220D054EA01021DD0A7
:1006A000C5F30A570246C5F31303C1F31300C1F3A0
:1006B0000A5640F4801543F48013A7EB0608101B7C
:1006C000D64608F2FD3873EB050002D308F10108A5
:1006D00001E092185B41B8F1000F03DA00200146F7
:1006E000BDE8F08D00204FF48011064684460EE0F0
:1006F000171B73EB050705D3121B63EB05030643BA
:100700004CEA010C49084FEA300092185B4150EA6C
:100710000107EDD152EA030012D082EA040083EA15
:100720000501084305D0101BAB4106D2012200236E
:1007300006E000224FF0004302E06FF00102531088
:100740001AEB06004CEB085110EB0A0041EB0B01D1
:10075000BDE8F04D00F053B970B521F000430343FC
:100760000CD0C1F30A550024D5EB040564EB040357
:10077000D617AD1AB34102DB0020014670BD201828
:1007800041EB025170BDC10F80EAE0700844CA0716
:100790009623002100F005B996230022114600F0AF
:1007A00000B90EB5C10F80EAE0700844CA07002105
:1007B00040F233438DE80E000A460B4600F02EF956
:1007C00003B000BD00F0004220F00040C10DC0F3B6
:1007D000160040F400007F2901DA002070479629B6
:1007E00003DCC1F19601C84001E096398840002A37
:1007F000F4D04042704720F00040C10DC0F3160015
:1008000040F400007F2901DA00207047962903DCBC
:10081000C1F19601C840704796398840704770B55D
:10082000C1F30A5201F000450024C1F3130140F264
:10083000FF3341F480119A4201DA002070BD40F28A
:1008400033439A42A2F2334203DC5242FFF7E7FC01
:1008500000E090402C43F1D0404270BDC1F30A52F9
:1008600010B5C1F3130140F2FF3341F480119A42F5
:1008700001DA002010BD40F233439A42A2F2334223
:1008800003DC5242FFF7CBFC10BD904010BD00F0DE
:10089000004230F000400AD0C10D01F56071C0F394
:1008A000160042EA0151C208400711437047002078
:1008B0000146704701F0004330B421F0004150EA96
:1008C000010206D00A0DA2F56072C1F31301002ADD
:1008D00002DC30BC00207047440F44EAC104C10070
:1008E000E01830BC00EBC25000F052B82DE9F05FC8
:1008F0000546002092469B4688460646814640248F
:100900001BE02846414647462246FFF788FC5346EF
:100910005A46C01A914110D311461846224600F09B
:1009200016F82D1A67EB01084F46224601200021D8
:1009300000F00DF817EB00094E41201EA4F1010450
:10094000DFDC484631462A464346BDE8F09F202A70
:1009500004DB203A00FA02F1002070479140C2F116
:10096000200320FA03F3194390407047202A06DB46
:10097000CB17203A41FA02F043EAE07306E041FA6D
:1009800002F3D040C2F1200291400843194670475B
:100990000029A8BF7047401C490008BF20F0010093
:1009A000704710B4B0FA80FC00FA0CF050EA010471
:1009B00004BF10BC704749B1CCF1200421FA04F403
:1009C00011FA0CF118BF012121430843A3EB0C01DC
:1009D000CB1D4FEA00614FEA102042BF002010BC3F
:1009E000704700EBC35010440029A4BF10BC7047EF
:1009F000401C490008BF20F0010010BC704710B532
:100A0000141E73F1000408DA401C41F10001921831
:100A10005B411A4301D120F0010010BD2DE9F04DDA
:100A200092469B4611B1B1FA81F202E0B0FA80F22F
:100A300020329046FFF78BFF04460F4640EA0A003B
:100A400041EA0B0153465A46084313D0114653EA74
:100A5000010019D0C8F140025046FFF7E0FB0546FF
:100A60000E46504659464246FFF771FF084305D0EF
:100A7000012004E020463946BDE8F08D0020054302
:100A800046EAE0762C4337430A986305E40AA0EB74
:100A900008000022FD0A44EA47540A3002D500202B
:100AA0000146E9E7010510196941DDE9084500192A
:100AB0006941BDE8F04DA2E7064C074D06E0E0684D
:100AC00040F0010394E8070098471034AC42F6D395
:100AD000FFF710FB20820008408200082DE9F04D4E
:100AE00000231A461B1A8A4103DB00200146BDE899
:100AF000F08DC1F30A52C1F3130141F480154FF098
:100B0000000BD10702D100186D41521E0027044688
:100B100040F2FF11384601EB620A3E46804602462B
:100B200000204FF48011FFF77AFBC2197141BB1806
:100B300046EB0100B4EB030C75EB000C04D3E41A94
:100B400065EB000517460E46241908F101006D41BA
:100B500080463428E3DDF91946EB0600091BA8415D
:100B600003D24FF0FF32134601E0002213461BEB85
:100B7000070046EB0A51BDE8F04DFFF740BF70B5E6
:100B80008C1810F8015B15F0070301D110F8013B38
:100B90002A1106D110F8012B03E010F8016B01F8BF
:100BA000016B5B1EF9D12B0705D40023521E0DD417
:100BB00001F8013BFAE710F8013BCB1A921C03E065
:100BC00013F8015B01F8015B521EF9D5A142D8D39D
:100BD000002070BD0A4902684A6443688B64007A49
:100BE00081F84C004A6041F8403F11F81C09C86088
:100BF000487F0861887F4861C87F8A608861704744
:100C0000842D0020FEE700002DE9F041354C2068DE
:100C100030B94FF47A6000F01FFA2068401C206061
:100C2000012002F095F86062022002F091F82E4D4A
:100C30004042A062B5F90800FFF7A5FD0146E8684B
:100C400002F04AFCA0612069FFF721FE4FF0333229
:100C5000264BFFF712FDFFF72DFEE060206801280C
:100C600006D12348206105F0C5FF002005F030FAC9
:100C7000B5F90A10606902F0B3FC2062EA68D4E9B1
:100C80000901E36802F044FCE061A1690F18206AE1
:100C9000391AE162FFF785FD164A174BFFF77BFC17
:100CA000064688463846FFF77CFD43463246FFF746
:100CB000CBFBFFF7B4FD206303F0E8FA09493031BC
:100CC000081F02F02FF8E86802F02EFA012802D17E
:100CD0000020E0622063D4E90B01BDE8F04102F09E
:100CE0004BB800007C0000206C2D00203333034003
:100CF0000000D8C19A9999999999E93F024A111F20
:100D0000081F04F089BA0000802D0020014800F07F
:100D100093B80000E0040020014800F08DB8000006
:100D20009C04002030B590F840500124AC40C56BC5
:100D30006C60046863604368102B036803D099609B
:100D40000068C26030BD9A600068C16030BD704705
:100D50004FF4807000F0A0B9704710B590F82110E2
:100D60000022022905D00421816380F8202001207F
:100D700010BD01680B6823F00E030B6001680B685F
:100D800023F001030B6090F84030C46B012101FA9D
:100D900003F3636080F8211080F82020104610BD16
:100DA00010B590F821100024022903D0042181639A
:100DB00001243DE001680A6822F00E020A60016821
:100DC0000A6822F001020A601A4A0168914201D1C0
:100DD000012121E0174A1432914201D110211BE078
:100DE000144A2832914201D1891515E0114A3C324A
:100DF000914201D189140FE00E4A5032914202D142
:100E00004FF4803108E00B4A6432914202D14FF432
:100E1000801101E04FF08071064A083A51600121CB
:100E200080F82110002180F82010416B01B1884723
:100E3000204610BD080002402DE9F05FC16B0C6830
:100E400001680B68D0F840C0042202FA0CF2494D48
:100E5000DFF824A1494E4A4FDFF828B1DFF828E136
:100E600022422CD05A072AD50A68920603D40A686F
:100E700022F004020A600168A94201D1042219E0AB
:100E8000514501D1402215E0B14202D14FF48062B8
:100E900010E0B94202D14FF480420BE0594502D133
:100EA0004FF4802206E0714502D14FF4800201E048
:100EB0004FF080622F4908394A60C16A3BE04FF029
:100EC000020808FA0CF818EA040F4FF000094FF076
:100ED000010235D05FEA837832D50B689B0605D4D2
:100EE0000B6823F00A030B6080F821200168A942F7
:100EF00001D1022219E0514501D1202215E0B14271
:100F000002D14FF4007210E0B94202D14FF4005206
:100F10000BE0594502D14FF4003206E0714502D191
:100F20004FF4001201E04FF00072124908394A6094
:100F300080F82090816A00291AD0BDE8F05F084748
:100F4000082505FA0CF5254212D01B0710D50B68B1
:100F500023F00E030B6090F84010C36B02FA01F10E
:100F60005960826380F8212080F82090016BE2E7CD
:100F7000BDE8F09F080002401C0002403000024023
:100F800044000240580002406C00024030B528B3D3
:100F900008C8134914221944B1FBF2F18900C16356
:100FA00010498163022141771A6843F6F0718A4340
:100FB000D0E900142143D0E902452C4321430469C0
:100FC000214344692143846921431143196000216D
:100FD0004163012242770177084630BD012030BDD0
:100FE000F8FFFDBF0000024070B5044690F82000F5
:100FF000002501280CD0012084F8200094F82160FD
:101000000020012E06D084F820000225284670BD5D
:10101000022070BD022684F82160A0632068066863
:1010200026F0010606602046FFF77CFEE06A0028F5
:101030002068016802D041F00E0106E021F00401B1
:1010400001602068016841F00A01016020680168C0
:1010500041F001010160D9E770B5044600F022F9C2
:101060000546601C02D004480078044400F01AF9D8
:10107000401BA042FAD370BD0C000020B0F5807F69
:1010800004D10448017811B1002101707047012199
:10109000FBE7000008000020044910B50A6802427E
:1010A00002D00860FFF7EAFF10BD00001404014001
:1010B0002DE9F84FDFF8B891002409F1040A0AF18C
:1010C000040B23460F270BF1040EC9E00125A540B0
:1010D0002A40AA427DD1674ED1F804C0ACEB060885
:1010E000B44532D014DCBCF1030F3AD009DCBCF1BA
:1010F000000F2AD0BCF1010F1CD0BCF1020F31D17E
:101100001DE0BCF1110F17D0BCF1120F2AD119E06C
:10111000B8F5881F19D006DCB8F5803F15D0B8F5B2
:10112000801F1FD111E0B8F5001F0ED0B8F5041FC5
:1011300018D10AE0CB6815E0CB681B1D12E0CB6824
:1011400008330FE0CB680C330CE08B682BB1012B1C
:101150004FF0080303D0456104E0042302E0056179
:1011600000E00023FF2A01D8064601E000F1040652
:101170004FEA840501D9A5F12005D6F8008007FAC9
:1011800005FC28EA0C0803FA05F548EA0508C6F844
:1011900000804D68ED0062D5374DAE6946F001061E
:1011A000AE61AD6924F0030605F001050095334DED
:1011B00006EB050CDCF80850A607360F07FA06F810
:1011C00025EA0805DFF8B880404503D14FF0000854
:1011D00017E044E0DFF8AC80404502D14FF0010851
:1011E0000FE0DFF8A480404502D14FF0020808E08C
:1011F000DFF89880404502D14FF0030801E04FF03E
:10120000040808FA06F848EA0508CCF808804D6892
:10121000D9F80060ED034D4601D5164300E0964332
:101220002E604D68DAF80060AD03554601D51643CF
:1012300000E096432E604D68DBF80060ED025D46ED
:1012400001D5164300E096432E604D68DEF800603D
:10125000AD02754601D5164300E096432E60641C2E
:101260000D682A46E5407FF431AFBDE8F88F0000F5
:101270000004014000001110001002400000014075
:1012800000080140000C0140001001400014014022
:101290008068084000D0012070470AB101617047A2
:1012A0000904FBE701488068704700000C0000203B
:1012B0000248816802781144816070470C00002068
:1012C000074810B5016841F010010160032000F0EB
:1012D00095F8002000F006F800F03EF8002010BD60
:1012E0000020024000B5014687B00022192000F01E
:1012F00065F8192000F054F81348816941F4006141
:101300008161806905A900F400600690684600F0DC
:101310001DF900F04BF90D490D4AB0FBF1F10D48F4
:10132000491E0260416040F2E7320021C0E903211A
:10133000816000F047FB10B1012007B000BD0548F7
:1013400000F06EFBF9E700000010024040420F0081
:10135000002C0140240500200F4808B5816941F0A8
:1013600001018161816901F001010091C16941F0D0
:101370008051C161C069002200F0805000900F21AF
:10138000901E00F01BF80548416821F0E06141F033
:101390000071416008BD00000010024000000140E3
:1013A000002809DB00F01F02012191404009800064
:1013B00000F1E020C0F8001170470000F0B40E4BBF
:1013C0001B680C46C3F30223C3F10705042D00D9A3
:1013D0000425191D072901D2002300E0DB1E012688
:1013E00006FA05F1491E214099409E40761E16409E
:1013F0003143F0BC02F042B90CED00E0064900F0C8
:10140000070208684FF6FF03184040EA0220034A2B
:1014100010430860704700000CED00E00000FA0582
:101420002DE9F0470F46050061D0434E306800F0CB
:101430000700B84209D2306820F007003843306016
:10144000306800F00700B84251D128683B4C810752
:1014500012D5400703D5606840F4E06060602878EA
:10146000000703D5606840F4605060606068A96858
:1014700020F0F000084360602878C00728D0686832
:10148000012810D02168022810D0890700292EDAFF
:10149000616821F0030101436160FFF703FF8046AB
:1014A00041F288390DE021688903EFE78901EDE712
:1014B000FFF7F8FEA0EB0801494502D90320BDE87B
:1014C000F0876068696800F00C00B0EB810FEFD125
:1014D000306800F00700B8420BD9306820F00700F0
:1014E00038433060306800F00700B84201D0012076
:1014F000E5E72878400705D56068E96820F4E060F2
:10150000084360602878000706D56068296920F4E0
:10151000605040EAC100606000F058F86168084A15
:10152000C1F30311515CC8400649086006480068D1
:10153000FFF7D8FE0020C2E7002002400010024062
:101540004C6C000818000020100000200F220260E0
:101550000C4A536803F003034360536803F0F0033D
:101560008360536803F4E063C36052684FF4E06340
:1015700003EAD20202610448006800F00700086034
:101580007047000000100240002002400448054956
:1015900000684968044AC1F30221515CC8407047A1
:1015A00018000020001002405C6C00080448054947
:1015B00000684968044AC1F3C221515CC8407047C1
:1015C00018000020001002405C6C000812A185B0D9
:1015D0000FC98DE80F0014A0144A006804905168E8
:1015E000134801F00C03042B10D0082B0ED1C1F3CB
:1015F0008343C9031DF803000AD5516804AAC1F347
:101600004041515C0A4A5043B0FBF1F005B07047CD
:1016100008494843FAE700000203040506070809E1
:101620000A0B0C0D0E0F10100102000000100240FA
:1016300000127A0000093D002DE9F84F040070D037
:101640002078C04DC00749D06868C0F381000128E8
:1016500007D06868C0F38100022809D16868C00318
:1016600006D52868800339D560680028E7D035E0C2
:101670006068B0F5803F0BD010B1B0F5A02F11D04D
:10168000286820F480302860286820F4802002E058
:10169000286840F480302860606890B1FFF702FE4F
:1016A00006460AE0286840F480202860F0E700BF82
:1016B000FFF7F8FD801B642873D828688003F7D5EE
:1016C0000CE0FFF7EFFD064605E000BFFFF7EAFD7F
:1016D000801B6428F0D828688003F7D420789A4EBD
:1016E00080074FF001094FF0000839D5686810F005
:1016F0000C0F07D06868C0F38100022809D1686820
:10170000C00306D42868800714D52069012808D1B1
:1017100010E02069B0B1C6F80090FFF7C3FD07469E
:1017200005E00AE1FFF7BEFDC01B0228C4D8286807
:101730008007F7D52868616920F0F80040EAC10009
:1017400028600DE0C6F80080FFF7ACFD074604E016
:10175000FFF7A8FDC01B022823D828688007F7D40C
:10176000207800072CD57948A169D9B1C0F800903C
:10177000FFF798FD074604E0FFF794FDC01B022821
:101780000FD8686A8007F7D571484FF4FA5100689E
:10179000B0FBF1F0009000BF0098411E0091FAD21A
:1017A0000EE080E0C0F80080FFF77CFD074604E013
:1017B000FFF778FDC01B022875D8686A8007F7D448
:1017C0002078400760D5E8690027C00008D4E869A0
:1017D00040F08050E861E869012700F080500090F7
:1017E0005C480168C90513D40168834641F48071DF
:1017F0000160FFF757FD824606E000BFFFF752FD8C
:10180000A0EB0A0064284ED8DBF80000C005F5D52F
:10181000E06801280AD008B1052813D0286A20F012
:1018200001002862286A20F0040002E0286A40F0E3
:1018300001002862E06841F2883B98B1FFF732FD71
:1018400082460BE0286A40F004002862EEE700BF01
:10185000FFF728FDA0EB0A0159455AD8286A8007EE
:10186000F6D50CE0FFF71EFD824605E0FFF71AFDF6
:10187000A0EB0A0159454CD8286A8007F6D41FB15D
:10188000E86920F08050E861E06988B36968C1F3D5
:101890008101022944D00228C6F8608004D0FFF7F5
:1018A00001FD044638E034E0FFF7FCFC074604E0A5
:1018B000FFF7F8FCC01B02282BD828688001F7D45A
:1018C000206AB0F5803F05D16868A16820F4003037
:1018D00008436860D4E908010843696821F4741179
:1018E00008436860C6F86090FFF7DCFC044606E039
:1018F00025E000BFFFF7D6FC001B022809D82868A6
:101900008001F7D51BE000BFFFF7CCFC001B0228CD
:1019100002D90320BDE8F88F28688001F4D40EE0D6
:101920000128F7D06868226A00F48031914204D11E
:10193000616A00F47010884201D00120EAE70020BB
:10194000E8E70000001002400000424280044242EA
:1019500018000020007000407047704770B590F884
:101960003C20012A26D0012480F83C40022280F845
:101970003D2003685A689D6822F070060A68324369
:101980005A600D4B02689A4208D0B2F1804F05D0E0
:101990000A4B9A4202D00A4B9A4204D1496825F078
:1019A00080031943916080F83D40002180F83C108D
:1019B000084670BD022070BD002C014000040040AC
:1019C0000008004010B5040003D094F83D0010B1A9
:1019D00007E0012010BD002084F83C00204600F004
:1019E0001EF8022084F83D00211D206801F0B6FA9F
:1019F000012084F8460084F83E0084F83F0084F813
:101A0000400084F8410084F8420084F8430084F8E0
:101A1000440084F8450084F83D00002010BD704764
:101A200090F83D10012901D001207047022180F873
:101A30003D100168CA6842F00102CA6000680B49A3
:101A4000884208D0B0F1804F05D00949884202D0C1
:101A50000849884204D1816801F00701062903D0B2
:101A6000016841F00101016000207047002C014035
:101A700000040040000800402DE9F0410D4604003C
:101A800003D094F83D0018B108E00120BDE8F081D2
:101A9000002084F83C00204600F040F8022084F842
:101AA0003D002068816844F2070291438160211D56
:101AB000206801F053FA226890689169166A2B68D1
:101AC000AF69034340F20330814341EA0721A8682C
:101AD000EF6908434FF6FC418843E96840EA072074
:101AE000014328692F6A000140EA0730084369680A
:101AF0006D6926F0220646EA05152943936022689F
:101B0000906154F8460B0162012004F81F09E0754A
:101B10002076E0762077A0750020B7E700B585B085
:101B20000021009101910291039101681A48B1F1DD
:101B3000804F1BD0194A914216D1C16941F004016E
:101B4000C161C16901F004010491816941F008019A
:101B500081618069694600F008000490C02000900F
:101B60000F4800BFFFF7A4FA05B000BDC16941F0FE
:101B70000101C161C16901F001010491816941F074
:101B8000040181618069694600F00400049003202B
:101B900000900448E6E70000001002400008004002
:101BA000000C01400008014070B590F83E6004460A
:101BB00090F83F5090F8423090F84320022021B135
:101BC00004290ED0012E1BD114E0012E18D1012BB7
:101BD00016D184F83E0084F84200012200212068DA
:101BE00020E0012D0CD1012A0AD184F83F0084F8AD
:101BF000430014E0012D03D1012B01D1012A01D0B2
:101C0000012070BD84F83E0084F83F0084F8420053
:101C100084F8430001220021206801F0D5F9012257
:101C20000421206801F0D0F92068016841F0010129
:101C30000160002070BD704770B5044600680169FE
:101C40004FF00005C943890715D4C168C943890706
:101C500011D4E91E01610120207720688069800786
:101C6000204602D0FFF7E7FF04E000F0BFF820466F
:101C700000F06CF9257720680169C943490717D43A
:101C8000C168C943490713D46FF004010161022000
:101C900020772068806910F4407F204602D0FFF74B
:101CA000CAFF04E000F0A2F8204600F04FF92577C3
:101CB00020680169C943090716D4C168C9430907E7
:101CC00012D46FF008010161042020772068C069F8
:101CD0008007204602D0FFF7AEFF04E000F086F850
:101CE000204600F033F9257720680169C943C90609
:101CF00017D4C168C943C90613D46FF0100101613C
:101D0000082020772068C06910F4407F204602D068
:101D1000FFF791FF04E000F069F8204600F016F9A3
:101D2000257720680169C943C90708D1C168C9433B
:101D3000C90704D1891E0161204600F0C5F9206859
:101D40000169C943090609D4C168C943090605D414
:101D50006FF0800101612046FFF7FEFD20680169F8
:101D6000C943490609D4C168C943490605D46FF07F
:101D700040010161204600F0C1F920680169C943B2
:101D800089060BD4C168C943890607D46FF02001C6
:101D900001612046BDE87040FFF7DFBD70BD000067
:101DA00000B585B000210091019102910391006876
:101DB0000B49884211D10B48816941F004018161CE
:101DC0008069694600F004000490C0200090022061
:101DD000019003900448FFF76BF905B000BD0000C7
:101DE000000400400010024000080140704770B538
:101DF000044690F83C000D4601280AD0012084F8E2
:101E00003C0042B1042A18D0082A2AD00C2A4DD10D
:101E100039E0022070BD206801F0E4F82068816993
:101E200041F0080181612068816921F0040181612C
:101E3000206881692A69114311E0206801F0FAF8ED
:101E40002068816941F4006181612068816921F421
:101E500080618161206881692A6941EA022181618A
:101E600024E0206801F012F92068C16941F00801FE
:101E7000C1612068C16921F00401C1612068C169A4
:101E80002A69114311E0206801F02CF92068C1692A
:101E900041F40061C1612068C16921F48061C161C0
:101EA0002068C1692A6941EA0221C161002084F8E1
:101EB0003C0070BD10B5040003D094F83D0010B193
:101EC00007E0012010BD002084F83C00204600F00F
:101ED0001FF8022084F83D00211D206801F03EF823
:101EE000012084F8460084F83E0084F83F0084F81E
:101EF000400084F8410084F8420084F8430084F8EC
:101F0000440084F8450084F83D00002010BD000026
:101F100008B500680B49884212D10B48C16941F0ED
:101F20000201C161C069002200F002000090052199
:101F30001D20FFF743FABDE808401D20FFF730BA27
:101F400008BD00000004004000100240007F054969
:101F5000042804D0082801D1102008607047082008
:101F6000FBE700001408014010B50446022249B105
:101F700004290ED0082913D094F84100012816D066
:101F8000012010BD94F83E000128F9D184F83E20CC
:101F90000FE094F83F000128F2D184F83F2008E0D8
:101FA00094F840000128EBD184F8402001E084F847
:101FB00041200122206801F007F80F49206888427B
:101FC00003D1426C42F4004242642068884208D047
:101FD000B0F1804F05D00949884202D008498842B3
:101FE00004D1816801F00701062903D0016841F09E
:101FF00001010160002010BD002C014000040040E0
:102000000008004010B50446022249B1042912D04C
:1020100008291CD094F84100012823D0012010BDCC
:1020200094F83E000128F9D184F83E202068C26867
:1020300042F0020209E094F83F000128EED184F852
:102040003F202068C26842F00402C2600EE094F8AB
:1020500040000128E2D184F840202068C26842F0A4
:102060000802F2E784F841200C2922D001222068DE
:1020700000F0AAFF11492068884203D1426C42F463
:10208000004242642068884208D0B0F1804F05D0F9
:102090000B49884202D00B49884204D1816801F083
:1020A0000701062903D0016841F001010160002009
:1020B00010BD2068C26842F01002C6E7002C014043
:1020C000000400400008004009490A6809490AB1B3
:1020D00008220A60064A121D12680AB110220A601C
:1020E00000680549884201D1FFF7E2B87047000057
:1020F0003C04004010080140002C0140704770472C
:1021000010B504460068416994F83D20C1F3C01140
:10211000212A0BD151B1416921F080014161606BED
:1021200008B1FEF71AFE204601F09BF820684169CD
:1021300094F83E20C1F38011222A0BD151B141699C
:1021400021F040014161A06B08B1FEF706FE204678
:1021500001F06FF8002010BD70470000F8B502686C
:1021600004461068D168536910F00F0F4FF0000556
:1021700053D003F0010601F4907737435FD0C207D4
:1021800005D0CA0503D5226C42F001022264420741
:1021900005D5DA0703D0226C42F0020222648207DE
:1021A00005D5DA0703D0226C42F00402226402074C
:1021B00007D501F02002324303D0226C42F008021E
:1021C0002264226C002A34D0800604D5880602D509
:1021D000204601F04FF820684069216CC0F3801060
:1021E000090700D430B3204601F023F82068416984
:1021F00049061BD5416921F040014161A06BA8B19E
:1022000058494163A06BFEF7CBFD002811D0A06BAD
:10221000416B01B0BDE8F040084783060FD58B063F
:102220000DD52046BDE8F84001F024B82046FFF760
:1022300093FFF8BD2046FFF78FFF2564F8BD266B9E
:102240002023012E52D1C60650D5CE064ED5106899
:1022500050680090506940062AD5A16B0868406814
:102260000004000CEAD0A68D8642E7D9E085886993
:10227000202818D0D06820F48070D0602068416990
:1022800021F0010141612068416921F04001416173
:1022900084F83E3025632068C16821F01001C160D8
:1022A000A06BFEF75AFDA08DE18D401A81B219E0B6
:1022B000A08DE18D401A81B2E08D0028BED00029AA
:1022C000BCD0D06820F49070D0602068426922F0C1
:1022D0000102426184F83E3025632068C26822F022
:1022E0001002C2602046FFF70AFFF8BD05062BD595
:1022F0000D0629D594F83D002128F6D1A068B0F547
:10230000805F01D12069B0B1206A411C216221683F
:1023100000784860E08C401E0004000CE084E4D1AA
:102320002068C16821F08001C1602068C16841F067
:102330004001C160F8BD206A0088C0F30800506009
:10234000206A801C2062E5E74006F3D54806F1D5F7
:10235000D168204621F04001D16084F83D3000F082
:10236000BAF8F8BD6531000870B5040004D094F8DF
:102370003D00002510B106E0012070BD84F83C50FE
:10238000204600F023F8242084F83D002068C1682E
:1023900021F40051C160204600F0C8FF20680169A7
:1023A00021F4904101612068416921F02A014161D5
:1023B0002068C16841F40051C1602564202084F880
:1023C0003D0084F83E00002070BD0000F0B585B0EF
:1023D00000240646009401940294039400682D4959
:1023E000884254D12C48C16941F48021C161C1693E
:1023F00001F480210491816941F0080181618069C3
:10240000264D00F0080004904FF4806000900220F8
:1024100001900320039069462846FEF749FEE81420
:10242000CDE90004694628460294FEF741FE1D4DA1
:102430001B488027C5E90004C5E902472C616C618F
:10244000AC612846EC61FEF7A1FD08B1FEF784FC03
:10245000B5636E62134D12484435143801C510201F
:1024600091C5104845F8104944306C61AC61EC618D
:10247000FEF78CFD08B1FEF76FFC756300220521A5
:1024800027206E62FEF79AFF2720FEF789FF05B02E
:10249000F0BD00000048004000100240000C014068
:1024A000300002409C04002090F83E30202B0ED1DA
:1024B00059B152B190F83C30012B08D0012380F87B
:1024C0003C300023036300F08DBF012070470220E1
:1024D0007047704770477047FEE7000070B5104DB9
:1024E0004FF40074002221462846FEF7D6FE00F085
:1024F00019F80122160231462846FEF7CEFE00F0FA
:1025000011F8002231462846FEF7C7FE00F00AF80F
:1025100021462846BDE870400122FEF7BEBE0000FD
:10252000000C01400020401C10F0FF00FBD0704761
:102530000C4800B5816985B041F00801816180696E
:10254000694600F0080004904FF4407000900320AA
:102550000390112001900448FEF7AAFD00F0AAF8AC
:1025600005B000BD00100240000C014070B50C4CDD
:10257000012251022046FEF790FEFFF7D3FF012211
:10258000150229462046FEF788FEFFF7CBFF002202
:1025900029462046FEF781FEBDE87040FFF7C2BF26
:1025A000000C01402DE9F0470024164E80462546D8
:1025B0004FF400794FF480776006040E012239460B
:1025C0003046FEF76AFEFFF7ADFF49463046FEF79C
:1025D0005FFE08B1641CE4B2002239463046FEF7C3
:1025E0005CFEFFF79FFF6D1CEDB2082DE4D3B8F140
:1025F000000F04D0FFF772FF2046BDE8F087FFF719
:10260000B5FFF9E7000C01402DE9F041174E0546F2
:1026100000244FF480774FF40078280601D501227A
:1026200000E0002241463046FEF737FEFFF77AFF12
:10263000012239463046FEF730FEFFF773FF0022D5
:1026400039463046FEF729FE072C04D101224146C7
:102650003046FEF722FE6806050EFFF763FF641C96
:10266000E4B2082CD9D3BDE8F0810000000C014091
:1026700070B501220E4D540221462846FEF70DFE8C
:102680000122160231462846FEF707FEFFF74AFFF1
:10269000002221462846FEF700FEFFF743FF0022F6
:1026A00031462846FEF7F9FDBDE87040FFF73ABF16
:1026B000000C014070B50B4D4FF400740022214610
:1026C0002846FEF7EAFD012211022846FEF7E5FD45
:1026D000FFF728FF21462846BDE870400122FEF79B
:1026E000DCBD0000000C014070B50122104D540209
:1026F00021462846FEF7D1FDFFF714FF01221602FE
:1027000031462846FEF7C9FDFFF70CFF2146284653
:10271000FEF7BEFD08B1012400E00024002231468E
:102720002846FEF7BAFDFFF7FDFE204670BD00000B
:10273000000C01402DE9F0411D4614460F460646A7
:10274000FFF796FF7006000EFFF75EFFFFF7CCFF66
:1027500020B1FFF7AFFF0120BDE8F0813846FFF759
:1027600053FFFFF7C1FFFFF783FF012000EB460097
:10277000C0B2FFF749FFFFF7B7FF09E0012C0DD00A
:102780005FF00100FFF70EFF641E05F8010BE4B2D5
:10279000002CF3D1FFF78EFF0020DDE70020F1E7EA
:1027A0002DE9F0411E4615460F460446FFF760FF2F
:1027B0006006000EFFF728FFFFF796FF60B9384666
:1027C000FFF722FFFFF790FF00240CE0305DFFF7DA
:1027D0001BFFFFF789FF20B1FFF76CFF0120BDE869
:1027E000F081641CE4B2AC42F0D3FFF763FF002039
:1027F000F5E700000D4808B5416941F0010141616C
:102800004069002200F00100009005210C20FEF735
:10281000D5FD0C20FEF7C4FD002205210D20FEF79A
:10282000CDFDBDE808400D20FEF7BABD0010024006
:1028300010B58EB01C220B496846FDF700FD002143
:10284000684603F01BFC084C06491C2220601C3122
:1028500007A8FDF7F4FC002107A803F00FFC606057
:102860000EB010BD146C0008000000202DE9F04FE0
:1028700085B000243D48009401940294039481693A
:1028800041F010018161816901F0100104918169B9
:1028900041F020018161816901F020010491816989
:1028A00041F004018161816901F0040104918169B1
:1028B00041F0080181618069DFF8B49000F0080000
:1028C000049000224FF400514846FEF7E6FCDFF882
:1028D000A4A000221C215046FEF7DFFCDFF898B0D0
:1028E00046F20307002239465846FEF7D6FC4FF45D
:1028F0004078012241465846FEF7CFFC0125A80347
:102900000226CDE90004CDE9024669464846FEF7B5
:10291000CFFB1C20CDE90005CDE9024669465046B3
:10292000FEF7C6FB00970396CDE901546946584669
:10293000FEF7BEFB280200901048CDE9010469466D
:102940005046FEF7B5FBCDE90085CDE90256694654
:102950005846FEF7ADFB002205211720FEF72EFD9D
:102960001720FEF71DFD05B0BDE8F08F00100240F6
:102970000010014000080140000C0140000031102F
:1029800010B58CB024216846FDF772FC0024154870
:1029900009944FF080410A94C0E900144FF6FF718A
:1029A000C0E90241046184610320CDE900040120F3
:1029B000CDE902040494CDE905400794694609482D
:1029C0000894FFF759F808B1FEF7C6F9099409A968
:1029D00004480A94FEF7C2FF002801D0FEF7BCF9B4
:1029E0000CB010BD8003002010B58AB000240794FD
:1029F0001C2168460894FDF73BFC22482049C0E9A9
:102A0000001441F63F71C0E9024104618461FFF79F
:102A100051FA08B1FEF7A0F9079407A919480894DC
:102A2000FEF79CFF08B1FEF797F96020CDE900049E
:102A300002940022694613480494FFF7D8F908B1BC
:102A4000FEF78AF9042269460E48FFF7D0F908B16B
:102A5000FEF782F9082269460A48FFF7C8F908B16B
:102A6000FEF77AF90C2269460648FFF7C0F908B16B
:102A7000FEF772F90348FFF793F90AB010BD0000A2
:102A800000040040C803002010B58CB02421684623
:102A9000FDF7EEFB00241648099414490A94C0E996
:102AA00000144FF6FF71C0E9024104618461032004
:102AB000CDE900040120CDE902040494CDE90540EC
:102AC000079469460A480894FEF7D6FF08B1FEF756
:102AD00043F9099409A906480A94FEF73FFF002824
:102AE00001D0FEF739F90CB010BD0000000800401D
:102AF000100400200C4810B50A4901604FF4E13180
:102B00004160002181600C22C160C0E90412816132
:102B1000C161FFF729FC002803D0BDE81040FEF793
:102B20001BB910BD0048004058040020FEE7704764
:102B3000002000F001B8000070B506465FF0000408
:102B400004F1B000C0B200F065FD002000F062FDAD
:102B5000102000F05FFD0025304600F063FD6D1C85
:102B6000EDB2802DF8D3641CE4B2082CE8D370BD1C
:102B700010B56420FEF770FAAE2000F04BFD202067
:102B800000F048FD102000F045FDB02000F042FDAF
:102B9000C82000F03FFD002000F03CFD102000F0B8
:102BA00039FD402000F036FD812000F033FDFF208C
:102BB00000F030FDA12000F02DFDA62000F02AFD40
:102BC000A82000F027FD3F2000F024FDA42000F005
:102BD00021FDD32000F01EFD002000F01BFDD520BC
:102BE00000F018FDF02000F015FDD92000F012FDD6
:102BF000222000F00FFDDA2000F00CFD122000F082
:102C000009FDDB2000F006FD202000F003FD8D20F3
:102C100000F000FD142000F0FDFCBDE81040AF20E6
:102C200000F0F8BC10B50446B031C8B200F0F2FCB8
:102C3000102040EA141000F0EDFC04F00F00BDE895
:102C4000104040F0010000F0E5BC00002DE9F04725
:102C5000002591468A460446012B22D0DFF8BC802D
:102C6000022B24D155E02038C7B27E2C04D90AF1BA
:102C70000100002400F0FF0A51462046FFF7D2FF72
:102C800007EB4700002608EB4007B85D00F0CAFCE0
:102C9000761CF6B2062EF8D3A41D6D1CE4B2EDB27C
:102CA00001E0DFF87C8019F805000028DBD1BDE8E1
:102CB000F0872038C7B2782C04D90AF1010000242B
:102CC00000F0FF0A51462046FFF7ACFF5FF0000618
:102CD00006EB071118F8010000F0A4FC761CF6B210
:102CE000082EF5D30AF10100C1B22046FFF79AFF82
:102CF0005FF0000606EB071101EB0800007A00F018
:102D000091FC761CF6B2082EF4D308346D1CE4B2A4
:102D1000EDB219F805000028CBD1C8E7D27A000837
:102D2000AA78000810B541F66412046853429C4228
:102D300001DA036002E0944200DD02600868984214
:102D400001DA0B6010BD9042FCDD0A6010BD00008E
:102D50000021012803D0022807D0002070474FF03F
:102D60008042506A516200B27047024A1068116096
:102D700000B27047240800402DE9F05F0546304856
:102D80002D4E0F46A6F104080024DFF8B0B04068CD
:102D9000FDF707FD8A468146002D10DD2846FDF728
:102DA00000FD5A46274BFDF7F6FB4A465346FDF712
:102DB0004BFBFDF753FD3060C8F8004012E0346073
:102DC000284601DAC5F10000FDF7EBFC5A461D4B21
:102DD000FDF7E1FB4A465346FDF736FBFDF73EFDA6
:102DE000C8F80000144D144E2D1D083E002F10DDB4
:102DF0003846FDF7D6FC5A46124BFDF7CCFB4A4647
:102E00005346FDF721FBFDF729FD28603460BDE83E
:102E1000F09F2C60384601DAC7F10000FDF7C1FCD5
:102E20005A46084BFDF7B7FB4A465346FDF70CFBE5
:102E3000FDF714FD3060EAE73C040040B81E85EB66
:102E4000B000002051B8F23FFDF7DEFE0A2003F08B
:102E500009F9F9E703F026FD02F0C2FA0028FBD1D8
:102E6000FFF786FEFFF764FE01230FA219461846FE
:102E7000FFF7ECFE01230EA203211846FFF7E6FE42
:102E800001230DA205211846FFF7E0FE01230CA245
:102E900007212320FFF7DAFE03F04AFEFDF72EFF9D
:102EA000052003F0DFF8F9E770697463683A000001
:102EB000726F6C6C3A0000007961773A0000000094
:102EC000627920484632320010B5502080F31188D4
:102ED000BFF34F8FBFF36F8F03F0C6FD18B10449E6
:102EE0004FF080500860002080F3118810BD000072
:102EF00004ED00E030B58FB028216846FDF7B8F941
:102F000014210AA8FDF7B4F901210804CDE9001045
:102F10000024029402250491CDE907504FF4E010FB
:102F200009906846FEF788FB0F20CDE90A05680284
:102F3000CDE90C4002210AA80E94FEF771FA0FB0F9
:102F400030BD70470148FEF777BE00002405002021
:102F50000148FEF771BE0000C8030020F0B502680A
:102F6000164B174C174D4FF08047984205D0B8428A
:102F700003D0A04201D0A84203D122F070064A68D3
:102F80003243984205D0B84203D0A04201D0A842B3
:102F900003D122F44074CA6822434C6922F08002B3
:102FA000224302608A68C2620A688262984201D142
:102FB0000969016301214161F0BD0000002C01405D
:102FC000000400400008004010B501F01F0301217B
:102FD000046A99408C430462016A9A401143016279
:102FE00010BD000030B5026A22F001020262026ADE
:102FF0004368846924F073050C682C4322F00205B1
:103000008A682A430A4DA8420BD122F00805CA68F3
:1030100023F440732A434D6922F004021D438B6957
:103020002B434360846149684163026230BD000004
:10303000002C014030B5026A22F010020262026ADE
:10304000436884690D6824F4E64444EA05248D68E5
:1030500022F0200242EA05120B4DA8420ED1CD68A3
:1030600022F0800242EA05124D6923F4406343EAEC
:1030700085038D6922F0400243EA85034360846141
:1030800049688163026230BD002C014030B5026A9C
:1030900022F480720262036A4268C46923F40073F6
:1030A00024F073050C682C438D6843EA05230C4D0E
:1030B000A8420ED1CD6823F4006343EA05234D698D
:1030C00022F4405242EA05128D6923F4806342EAF9
:1030D00005124260C4614968C163036230BD0000EB
:1030E000002C014030B5026A22F480520262046A68
:1030F0004268C3690D6823F4E64343EA05238D68FB
:1031000024F4005444EA0534064DA84204D14D6924
:1031100022F4804242EA85124260C3614968016438
:10312000046230BD002C01400B4B20F00040002118
:103130000A4A98420CDD0A4B0120107019601B1DD1
:103140001960074B1B1F1960054B0833196000E01D
:10315000002011707047000000008842B00000207D
:103160003804004010B5406A0021C185C184FEF7D3
:10317000F3FF10BD70B5446A2068406994F83D10B3
:10318000C0F3C0100025212904D118B1E5842046E0
:1031900000F067F82068406994F83E10C0F3801092
:1031A000222904D118B1E585204600F042F8206CB0
:1031B00040F0100020642046FEF7CEFF70BD10B531
:1031C0000146406A0968096889061BD40021C18547
:1031D0000168CA6822F48072CA6001684A6922F0F4
:1031E00001024A6101684A6922F040024A612021D5
:1031F00080F83E10016B012904D10168CA6822F0F1
:103200001002CA60016B012902D0FFF762F910BDFC
:10321000818DFEF774FF10BD10B5406A016B012966
:1032200002D0FFF757F910BD818D4908FEF767FFFF
:1032300010BD0168CA6822F49072CA6001684A69C8
:1032400022F001024A61016B012904D10168CA68B8
:1032500022F01002CA60202180F83E100021016394
:1032600070470168CA6822F0C002CA60202180F855
:103270003D10704708B590F83E10222901D0022079
:1032800008BD82684FF480539A4201D1016921B18F
:10329000816A9A421BD04AB10AE00268816A526888
:1032A000C2F308020A80816A891C08E0026972B1CF
:1032B0000268526802F07F020A70816A491C8162CA
:1032C000C18D491E0904090CC18503D019E00268AB
:1032D0005268F1E70168CA6822F02002CA600168FA
:1032E000CA6822F48072CA6001684A6922F0010249
:1032F0004A61202180F83E10016B012903D0FFF7BD
:10330000E8F8002008BD002101630168CA6822F0C6
:103310001002CA6001680A68D20602D50A684968C4
:103320000091818DFEF7EBFEEBE7000070B50446DF
:1033300000680169E26821F440511143016121698B
:10334000A0680843616908432168CA6841F20C63B8
:103350009A430243CA6020684169A26921F440711E
:10336000114341611E492068884202D1FEF71EF9CF
:1033700001E0FEF70BF900EBC00101EB0012606801
:1033800064218000B2FBF0F3B3FBF1F36FF0180699
:103390007343B2FBF0F5B2FBF0F605EB8305322385
:1033A00003EB0515B5FBF1F5B6FBF1F605F0F005FD
:1033B00005EB0615B2FBF0F6B2FBF0F0B0FBF1F056
:1033C0006FF01802504306EB800003EB0010B0FBD7
:1033D000F1F0216800F00F002844886070BD000003
:1033E0000038014038B581628285002513460446C5
:1033F0000564222084F83E00A26B13489062A26B01
:103400001248D062A26B12481063A06B0A46456353
:103410002168A06B091DFDF7E7FD20680168416880
:10342000009184F83C50C16841F48071C16020680B
:10343000416941F0010141612068416941F0400169
:103440004161002038BD0000BF310008193200087A
:103450007531000838B5124C20680168C943C906A7
:1034600011D46FF0100101602046FEF749FE0D48AF
:10347000006840680C4914220D462046FFF714F8F6
:103480002846FDF7A7FB20680168C943090702D455
:10349000016840680090BDE838400148FEF75EBE14
:1034A000580400209C0400209C2D0020FEE70022F0
:1034B00011468318521CD2B21976142AF9D3A522C8
:1034C00082705A22C2700170417041608160C16097
:1034D000016141617047000070B50C460A49FCF774
:1034E00031FF0A4E05462046B168FCF731FF04461D
:1034F00029463068FCF72CFF2146FCF7D1FEBDE8D9
:103500007040FDF75FB900009A99993FC80000200C
:103510002DE9F047064691460D4698461846FDF7B8
:10352000B6F907460C467019FDF73BF94FF0FF322C
:10353000FDF712F93A462346FDF727F8FDF7BAF9E9
:10354000214C06461F492069FCF702FF05461F492A
:103550003046FCF7FDFE2946FCF7A2FE0546014673
:1035600020616069FCF79CFE4146FCF7EBFE1849C0
:103570006061884202DC1749884200D96161124EBD
:10358000606918363169FCF7E3FE07462846F168A2
:10359000FCF7DEFE3946FCF783FE0F49A060884247
:1035A00002DC0E49884200D9A1604846FFF7BCFD05
:1035B000012801D100206061A068BDE8F047FDF757
:1035C00001B90000CDCC4C3FB0000020CDCC4C3E2A
:1035D00000007A4500007AC50080BB450080BBC56D
:1035E00070B50C46FDF7CFF806462046FDF7CBF840
:1035F000074D296AFCF7ACFE04463046A969FCF782
:10360000A7FE2146FCF74CFEBDE87040FDF7DAB896
:10361000C800002001B56B46012200213C20FFF7C5
:10362000BFF808BD01B56B46012240213C20FFF7E1
:10363000B7F808BD0FB4054B10B503A9044A0298AA
:1036400000F0AAF810BC5DF814FB0000DD4B000888
:1036500024010020490050EAC12018BF04204A0D6F
:1036600018BF40F0010040F2FF72B2EB515F08BF9B
:1036700040F00200012808BF052070470907090E25
:10368000002804DB00F1E02080F80014704700F00F
:103690000F0000F1E02080F8141D70472DE9F04183
:1036A0004F1E00EBC7010446D1E9000115461E4636
:1036B00037F006020DD02A463346FCF76CFF7F1E1A
:1036C00004EBC703D3E90023FCF7BEFE37F0060284
:1036D000F1D1022F25D0042F13D0062F18BFBDE83B
:1036E000F0812A463346FCF756FFD4E90A23FCF75B
:1036F000ABFE2A463346FCF74EFFD4E90823FCF71D
:10370000A3FE2A463346FCF746FFD4E90623FCF71E
:103710009BFE2A463346FCF73EFFD4E90423FCF720
:1037200093FE2A463346FCF736FFD4E90223FCF722
:103730008BFE2A463346FCF72EFFD4E90023BDE872
:10374000F041FCF781BE0122FDF706B8FCF77CBE14
:103750000022134610461146FCF78FBF024A002094
:103760001107FCF7F9BF000001FDFFFF02E008C8E8
:10377000121F08C1002AFAD170477047002001E0EB
:1037800001C1121F002AFBD17047000001490860E7
:1037900070470000280100202DE9FF4F8DB00F4633
:1037A0000546002606E025280BD0DDE90F129047DC
:1037B0006D1C761C28780028F5D111B03046BDE884
:1037C000F08F0024A246A1460122EC4900E0044308
:1037D00015F8013F203B02FA03F00842F7D12878A0
:1037E0002A2810D06FF02F022878A0F13001092983
:1037F00014D80AEB8A0102EB410144F0020400EB09
:10380000010A6D1CF0E701CF5FEA000A03D544F41A
:103810000054CAF1000A44F002046D1C28782E28D6
:1038200017D115F8010F44F004042A280ED06FF0C8
:103830002F022878A0F1300109290AD809EB890163
:1038400002EB410100EB01096D1CF2E757F8049B04
:103850006D1C28786C280FD006DC4C2817D06828FF
:103860000DD06A2814D104E0742810D07A280FD122
:103870000DE044F400140AE044F4801401E044F440
:1038800040146978814202D104F580146D1C6D1CCE
:103890002A786E2A1FD00CDC632A31D004DC002A7F
:1038A0008BD0582A11D1A3E0642A68D0692A0CD1A0
:1038B00065E0732A2ED004DC6F2A73D0702A04D1FD
:1038C0009BE0752A6FD0782A6ED01046DDE90F1282
:1038D0009047761C50E1C4F30250022806D003281A
:1038E00009D0042801CF09D0066045E101CFF117C6
:1038F000C0E9006140E101CF06803DE106703BE197
:1039000017F8040B8DF8000000208DF80100EB463D
:10391000012003E057F804BB4FF0FF3061074FF080
:10392000000102D40DE008F10101884649450FDA93
:103930008045F8DB1BF808100029F4D108E008F1F5
:10394000010188468142FADB1BF808100029F6D1F4
:10395000DDE90F23AAEB08008146214600F036F985
:10396000304400EB080604E0DDE90F121BF8010B00
:103970009047B8F10108F7D221464846F7E00A21FE
:10398000C4F302534FF0000B0891022B04D001CF77
:10399000C117032B09D00AE0FF1D27F00707F7E83E
:1039A000020108E032E01FE020E000B2C117042B62
:1039B00001D140B2C117031E71F1000307DA4FF0C5
:1039C000000CD0EB0C006CEB01012D2302E0230571
:1039D00004D52B238DF82430012303E0E30701D025
:1039E0002023F7E7984658E00A2110E010210EE066
:1039F00010204FF0000B08900CE010214FF0000B4E
:103A000044F004044FF00809089103E008214FF046
:103A1000000B0891C4F30253022B04D001CF002104
:103A2000032B06D006E0FF1D27F00707F7E8020189
:103A300003E080B2042B00D1C0B24FF0000823078E
:103A40002BD5702A07D0DDF820C08CF0100C5CEA72
:103A50000B0C05D00EE040238DF82430012308E044
:103A600050EA010306D030238DF824308DF825204C
:103A700002239846DDF820C08CF0080C5CEA0B0CA1
:103A80000BD150EA010301D1630706D530238DF82D
:103A900024304FF00108A9F10109582A04D038A2B6
:103AA0000B9208AA0A920BE03AA2F9E75B46089A41
:103AB000FCF71CFF0B9B9B5C0A9A521E0A92137028
:103AC00050EA0102F2D10A98ADEB000000F1200BA0
:103AD000600702D524F4803401E04FF00109D94594
:103AE00002DDA9EB0B0000E0002000EB0B014144DC
:103AF0000890AAEB010AE00306D4DDE90F23214672
:103B0000504600F063F806444FF0000908E009A9A8
:103B100011F80900DDE90F12904709F10109761C3F
:103B2000C145F4DBE0030CD5DDE90F232146504607
:103B300000F04CF8064404E0DDE90F123020904715
:103B4000761C0899481E08900029F5DC08E00A98C0
:103B50000A990078491C0A91DDE90F129047761CFA
:103B6000BBF10001ABF1010BF1DC21465046DDE970
:103B70000F2300F019F806446D1C1BE6092801000C
:103B800030313233343536373839616263646566D3
:103B90000000000030313233343536373839414295
:103BA00043444546000000002DE9F041044600254D
:103BB0001E461746880404D405E039462020B04745
:103BC0006D1C641EF9D52846BDE8F0812DE9F04151
:103BD000044600251E469046C80301D5302700E064
:103BE0002027880404D505E041463846B0476D1CBF
:103BF000641EF9D52846BDE8F08100002DE9FE4F8E
:103C000007460E460025684600F0F2FF00246FF0DC
:103C10000F0AE8464FF0010957F8240056F824101F
:103C2000401A00D54042FCF7AEFD5146FCF700FCBF
:103C300058F8241011F0FF4F0BD0FCF7BBFB4FF0EE
:103C40007E51FCF77FFB0A4920F00040884205DCEA
:103C500007E0084908440849884202D309FA04F0F9
:103C60000543641C032CD7DB2846BDE8FE8F00000B
:103C7000295C0F3E666666C19A99D9002DE9F04D20
:103C80008D4F21F0004A86B005460C46BA452ADB26
:103C9000AAEB070028430AD08848824501DC1AD1E4
:103CA000CDB106B02846BDE8F04DFFF74CBD844AC3
:103CB000844B2846FCF76FFC07460E46824A834B2E
:103CC00028462146FCF767FC06B03A463346BDE875
:103CD000F04DFCF7B9BB0120FFF758FD06B0BDE879
:103CE000F04DFFF735BD7A48824542DABAF1795F87
:103CF0000BDA2846FFF7AEFC042808BFFFF72EFDBD
:103D0000284606B02146BDE8F08D2A460B461046EF
:103D1000FCF741FC834602466E480E460B460621E0
:103D20007844FFF7BBFC5A463346FCF734FC804628
:103D300069488A465A46334604217844FFF7AEFC68
:103D40005A463346FCF727FC00223B46FCF77CFB37
:103D500002460B4640465146FCF78FFC2A46234656
:103D6000FCF719FC06B02A462346BDE8F04DFCF7E7
:103D70006BBB284624F0004100223D463B46FCF741
:103D800007FC4FF0FF32FCF7E7FC064602465348BB
:103D90000F460B4606217844FFF780FC32463B462F
:103DA000FCF7F9FBCDE900014D4832463B460421C2
:103DB0007844FFF773FC32463B46FCF7ECFB0022ED
:103DC0002B46FCF741FB834602913046394602F010
:103DD00023FC804643480D46504517DCDDE90001D1
:103DE0005A46029BFCF749FC42462B46FCF7D3FBA4
:103DF00042462B46FCF728FB0122FCF7ADFC304A7B
:103E0000304BFCF7C2FB304A304B4CE04FF0000A1D
:103E100052460B464046FCF717FBCDE903105246CD
:103E20002B4610461946FCF7B6FB32463B46FCF7DC
:103E3000AFFBDDE90332FCF720FC06460F46DDE967
:103E400000015A46029BFCF718FC834600910122B0
:103E500030463946FCF780FC194A1A4BFCF798FBB0
:103E600006460F46012240462946FCF775FC5A4695
:103E7000009BFCF790FB32463B46FCF786FB064670
:103E80000F46012250462946FCF766FC0E4DDFF82E
:103E900058802A464346FCF77BFB32463B46FCF7FC
:103EA00077FB2A464346FCF773FB002CD8BF81F012
:103EB000004106B0BDE8F08D0000F03F0000F07F4B
:103EC000075C143326A6913C182D4454FB21F93F7E
:103ED0000000E03FA4430000BA4300002E4300006E
:103EE000444300003333EF3FFB21E93F2DE9F84F16
:103EF00004460D4621F0004000917349814211DCD7
:103F00007249884201DC06D12CB120462946BDE821
:103F1000F84FFFF718BC6E48002DCCBF6D496E49B5
:103F2000BDE8F88F6D49814211DD6D498142D8BFEE
:103F30004FF0FF366DDD20462946FFF78BFB042846
:103F400008BFFFF70BFC20462946BDE8F88F6549FE
:103F5000654F25F00045814233DD6449814219DD1A
:103F6000002632464FF0804320462946FCF76CFA83
:103F700080468A46012220462946FCF7EDFB0022B6
:103F80003B46FCF702FB42465346FCF776FB0446F1
:103F90000D463EE001260022BA463B462046294611
:103FA000FCF752FA80460F46002253462046294627
:103FB000FCF7EBFA42463B46FCF75FFB04460D4636
:103FC00027E04B4981421BDDDFF828A102260022B1
:103FD000534620462946FCF7DEFA00223B46FCF712
:103FE00033FA80460F460022534620462946FCF706
:103FF000CCFA42463B46FCF740FB04460D4608E03F
:10400000032622462B4600203B49FCF736FB04469C
:104010000D4622462B4610461946FCF7BCFA8B4645
:10402000824602460B46FCF7B6FA0746024633487C
:1040300088460B4606217844FFF730FB52465B4624
:10404000FCF7A9FA82462E488B463A46434605219C
:104050007844FFF723FB3A464346FCF79CFA0246B6
:104060000B46002E504659460CDAFCF7EDF9224675
:104070002B46FCF790FA01B022462B46BDE8F04FE4
:10408000FCF786BAFCF7E0F922462B46FCF783FAE8
:104090001C4A7A4402EBC603D3E90023FCF775FA05
:1040A00022462B46FCF771FA174A7A4402EBC60304
:1040B000D3E90023FCF76CFA009A002AB8BF81F01C
:1040C0000041BDE8F88F0000000010440000F07FC0
:1040D000182D4454FB21F93FFB21F9BF0000DC3FC0
:1040E0000000203E0000F33F0000F03F0000E63FEC
:1040F000008003400000F83F0000F0BF4641000090
:1041000004410000A24000006A4000002DE9F04D8B
:104110009446CCF1000423F000464CEA0404524FCC
:1041200046EAD4749A46884621F00042BC4206D83A
:10413000454240EA050442EAD474BC4204D9BDE8D1
:10414000F04D6246FFF702BBAAF14055A5F17F652D
:1041500055EA0C040BD0022404EAAA74434DDFF89C
:1041600010E144EAD87452EA000B04D00CE0BDE838
:10417000F04DFFF7BBBE002C14BF012CBDE8F08D45
:10418000022C30D0032C32D056EA0C0B0AD0BE429F
:1041900020D1BA4209D126F0804622F0804233462F
:1041A000114617E000291ADB25E0DFF8C8B0FB4410
:1041B000002C04BFDBE90001BDE8F08D012C02BF3B
:1041C000DBE9000181F00041BDE8F08D022C0AD04E
:1041D000032C0CD0BA4212D1B8F1000F0BDA2348ED
:1041E0002549BDE8F08D28462449BDE8F08D2846D4
:1041F0007146BDE8F08D1D482149BDE8F08D921B48
:1042000012153C2AC4BF19481D490EDCBAF1000F33
:10421000BEBF12F13C0F0020014606DB6246FCF7F0
:104220002CFA21F00041FFF761FE002C08BFBDE829
:10423000F08D012C04BF81F00041BDE8F08D114AE2
:10424000114B022C07D0FCF7A0F92A46BDE8F04D2F
:104250000A4BFCF79AB9FCF798F92A46BDE8F04DED
:10426000064BFCF795B900000000F07F182D445470
:10427000FB2109C0FE3F0000FB21F9BFFB210940E3
:10428000FB21F93F075C143326A6A13C0448C06B10
:10429000022803DB03480021C1620163704700006C
:1042A000842D00207C00002008B560B120208DF80E
:1042B000000028208DF8010030208DF80200382001
:1042C0008DF8030004E0A32204216846FBF7C9FF30
:1042D0006A46042140F69E2001F09AFE01F058FB48
:1042E00008BD00003EB5044602208DF80000CA203B
:1042F0008DF80100E3208DF8020009208DF80300FD
:104300006A460421682001F083FEA3208DF8000096
:10431000610609D5C0218DF80110C8218DF8021061
:10432000C2218DF8031005E08DF801008DF8020020
:104330008DF8030014F4C07F09D0C4218DF8041057
:10434000CC218DF80510C6218DF8061005E08DF8FA
:1043500004008DF805008DF806008DF808008DF832
:1043600007008DF809006A460A2140F6A72001F0EF
:104370004FFEA0074FF0D80503D020208DF8000095
:1043800001E08DF800506A46012140F6B62001F0A8
:104390003FFEA00601D5012000E0002000F08EF8CD
:1043A00014F4C07F1ED0E0050AD5B2208DF80000BD
:1043B0008B208DF80100B6208DF802009B2009E0CB
:1043C000B0208DF8000080208DF80100B4208DF819
:1043D000020090208DF803006A46042140F6A220D6
:1043E00001F016FEE1074FF40B6022D0F8218DF8A2
:1043F00000106A46012101F00BFEFA21072000F0AF
:1044000039FB072000F004FB012000F021FB6420B1
:1044100000F0C4FB4FF4FA7000F0D0FBC82125482F
:1044200000F0BEFA282000F0D3FA0A2000F0E0FAEB
:1044300005E08DF800506A46012101F0E9FDA00772
:1044400003D5D9208DF8000001E08DF800506A46B0
:10445000012140F23D7001F0DBFD600701D5012034
:1044600000E0002000F048F8E00601D5012000E05F
:104470000020FFF719FF104D44F00800688101F09B
:1044800087FA0020A873600601D50620A87314F4EB
:10449000C07F02D0A87B801DA87314F0140F02D037
:1044A000A87B1030A873A00702D0A87B001DA873BA
:1044B00000203EBD09E3CA02D42D00200EB54FF402
:1044C000976310B106A107C901E008A207CA8DE8E9
:1044D00007006A460921184601F09AFD0EBD00004A
:1044E000B8AAB38DB4980D355D000000B8AAAAAA89
:1044F000B088C3C5C700000008B560B1C0208DF802
:104500000000C2208DF80100C4208DF80200C620F2
:104510008DF8030004E08B2204216846FBF7A1FE1E
:104520006A46042140F6982001F072FD01F030FA4D
:1045300008BD0000C8234FF48062024940F6F630FF
:1045400001F008B9B46C00082DE9FF4F89B0174697
:10455000DDE9165200244C4E884681462C80A24646
:10456000B07B694601F0A2F94FF0FF3B18B1584605
:104570000DB0BDE8F08F708910F0140F3CD0009999
:1045800009BA21F0FF039DF803100B433B6001992A
:104590001B1409BA21F0FF029DF807105B430A4380
:1045A0007A6002999DF80B4009BA21F0FF0121437E
:1045B000B960039C091424BA24F0FF0C9DF80F4045
:1045C00012144CEA040CC7F80CC04FEA2C474943BC
:1045D00002FB023207FB071111441024A1F17061A4
:1045E000B1F1007F04D901F0D3F9A5F800A0BEE72E
:1045F000298841F4807129804206694611D50A193B
:10460000A41D13885BBAA8F8003053885BBAA8F8D9
:104610000230928852BAA8F804202A8842F0080290
:104620002A8010F4C07F11D00A19A41D13885BBA28
:10463000A9F8003053885BBAA9F80230928852BAC0
:10464000A9F804202A8842F070022A80800716D038
:104650000C44E07800F0C00500F03F016078C0072E
:1046600006D0C80801F007013268491C02B1904722
:104670006078000703D5716809B1A80988470C98CC
:1046800000F09EFD002073E7D42D00202DE9FF41AE
:10469000044603A800F014FFBDF80C00410CC3034E
:1046A0002F48028902F00300550754F8200000D576
:1046B0004042C2F3C105960654F8255000D56D421C
:1046C000C2F38116D20554F8264000D56442A0FBFF
:1046D0000367C21702FB037200FB0120820042EA5B
:1046E0009670A5FB0367EA1702FB037205FB012224
:1046F000950045EA9672A4FB0367E51705FB037373
:1047000004FB01318B0043EA9671030E8DF80030F3
:10471000030C8DF80130030A8DF802308DF8030088
:10472000100E8DF80400100C8DF80500100A8DF89D
:104730000600080E8DF80800080C8DF80900080A1C
:104740008DF80A008DF807208DF80B106A460C21B1
:104750004FF4257001F05CFC04B0BDE8F08100006E
:10476000D42D002030B5044613A285B007CA8DE8C9
:1047700007004FF0FF35C82C16D8C820B0FBF4F165
:10478000491E080A8DF80C008DF80D1003AA0221AD
:1047900040F2162001F03CFC30B96A460C2140F68C
:1047A000C12001F035FC10B1284605B030BD0548E8
:1047B00084810020F9E70000FEF2ABC4AAF1DFDF3C
:1047C000BBAFDFDFD42D0020F8B53049098901F0F7
:1047D000030250F822404A0700D56442C1F3C102E7
:1047E0008B0650F8222000D55242C1F3811350F8B5
:1047F0002330C80500D55B42254984FB0140850074
:1048000045EA947082FB0142A40F44EA820483FBD0
:104810000121950F45EA8105010E8DF80010010C6C
:104820008DF80110010A8DF802108DF803006A4618
:1048300004214FF4747001F0EBFB4FF0FF3688B9A0
:10484000200E8DF80000200C8DF80100200A8DF854
:1048500002008DF803406A4604214FF4757001F0A0
:10486000D7FB08B13046F8BD280E8DF80000280CA3
:104870008DF80100280A8DF802008DF803506A4671
:1048800004214FF4767001F0C3FBF8BDD42D002055
:1048900009E3CA022DE9FF4104463CA004F00303EA
:1048A000006802903AA0006803903AA006683AA017
:1048B000056802A8C15C8DF80010C4F3C101425C18
:1048C0008DF80120C4F38112805C8DF8020003A8EA
:1048D000C35C8DF80430415C8DF80510805C8DF868
:1048E00006006A46032140F2264001F091FB4FF09A
:1048F000FF37E0BB01AA032140F22A4001F088FB08
:10490000A8BBCDE9006560070BD59DF8000040F01D
:1049100001008DF800009DF8040040F001008DF8C2
:104920000400A0060BD59DF8010040F001008DF8B1
:1049300001009DF8050040F001008DF80500E0053C
:104940000BD59DF8020040F001008DF802009DF8A3
:10495000060040F001008DF806006A4603214FF47E
:10496000886001F055FB10B901AA032100E004E0C2
:1049700040F2314001F04CFB18B1384604B0BDE8BC
:10498000F081064804810020F8E700004CCD6C005F
:104990000CC92C003656760026466600D42D002021
:1049A0004FF47A7290FBF2F008B54843010E8DF88F
:1049B0000010010C8DF80110010A8DF802108DF81D
:1049C00003006A4604214FF4AE7001F021FB08BDDC
:1049D0000521B0FBF1F008B5010A8DF800108DF843
:1049E00001006A4602214FF4AD7001F011FB08BDD1
:1049F0000521B0FBF1F008B5010A8DF800108DF823
:104A000001006A4602214FF4AC7001F001FB08BDC1
:104A100008B500218DF80010C10702D030218DF8B3
:104A20000010810705D59DF8001041F00C018DF8AC
:104A30000010400705D59DF8000040F003008DF8F8
:104A400000006A4601214FF4A47001F0E1FA08BDAC
:104A500008B560B1042800D90420401E8DF800007C
:104A60006A46012140F24F1001F0D2FA08BD012040
:104A7000F3E700002DE9FC41054640074FF0FF3603
:104A80007CD0B1F5C86F79D80846FBF785FE3E4962
:104A9000FBF790FC074601A800F0F4FC9DF8040029
:104AA000022806D004280DD008282ED0102865D161
:104AB00034E00E213846FBF7BBFCFBF79CFE84B2CA
:104AC000324907E00D213846FBF7B2FCFBF793FEB5
:104AD0002F4984B23846FBF73BFCFBF78CFE210ADA
:104AE0008DF8001080B28DF80140010A8DF8021097
:104AF0008DF80300E8076C4620D0224602214FF4CF
:104B0000EA7001F085FAC8BB11E00C213846FBF7CA
:104B10008FFCFBF770FE84B21E49DBE70B213846A1
:104B2000FBF786FCFBF767FE84B21B49D2E7A21CA9
:104B300002214FF4927001F06BFAF8B9A8070DD575
:104B40006A4602214FF4EC7001F062FAB0B9A21C7F
:104B500002214FF4947001F05BFA78B9680710D520
:104B60006A4602214FF4EE7001F052FA30B9A21CED
:104B700002214FF4967001F04BFA10B13046BDE8B7
:104B8000FC810020FBE70000000048430000404695
:104B90000000C045000040450000C0440521B0FBB6
:104BA000F1F008B5010A8DF800108DF801006A4691
:104BB00002214FF4EF7001F02BFA08BD0521B0FB84
:104BC000F1F008B5010A8DF800108DF801006A4671
:104BD00002214FF4ED7001F01BFA08BD03490A6889
:104BE0001206FCD50149091D0860704700480040C5
:104BF0002DE9FE430646264801AB042240680D21FC
:104C00000078FDF797FD10B10720BDE8FE839DF801
:104C100004101C2000EAD1029DF80710DFF8749000
:104C2000C1F301131A438DF800209DF80520C1F34C
:104C3000810300EAD2021A438DF801209DF8062074
:104C400001F0030100EAD20008430024124F8DF85E
:104C50000200A0466D46285D10B146F824900AE097
:104C600046F824800DE000BF56F824003946FBF7D3
:104C70006FFB46F82400285D401E10F0FF00285509
:104C8000F2D1641CE4B2032CE5D30020BDE70000A0
:104C9000EC0000207B14AE3E1D5A843F2DE9FE4FF0
:104CA00005460120C14E8DF800004FF000088DF838
:104CB000018030680C461746817C70686B46022282
:104CC0000078FDF76DFD4FF0FF3A00287AD1C8203B
:104CD000FCF7C2F98DF8008030686B460122C17B79
:104CE00070680078FDF75CFD0028EFD130686B46F6
:104CF0000122417970680078FDF752FD0028E5D166
:104D000030686B460122817C70680078FDF748FDB1
:104D10000028DBD130686B460122C17D70680078C5
:104D2000FDF73EFD0028D1D130686B4601220179A4
:104D300070680078FDF734FD0028C7D14FF00C09EA
:104D40008DF8009030686B46012201797068007818
:104D5000FDF726FD002835D10F20FCF77DF9B06A5C
:104D60006B460122407A8DF80000306881787068C7
:104D70000078FDF715FD002824D1B06A6B460122AA
:104D8000007A8DF800003068417870680078FDF78F
:104D900007FD002873D1B06A807A0FB140F0E000BF
:104DA0008DF8000030686B460122817970680078C8
:104DB000FDF7F6FC002862D12FB1B06AC07A40F04E
:104DC000E00001E04AE018208DF8000030686B46F2
:104DD0000122C17970680078FDF7E2FCF0BB17B1E1
:104DE000C820FCF739F940208DF8000030686B4688
:104DF0000122017970680078FDF7D2FC70BB782041
:104E00008DF8000030686B460122417970680078A7
:104E1000FDF7C6FC10BB3220FCF71EF98DF80080B0
:104E2000306847466B464179706801220078FDF78B
:104E3000B7FC98B931687068B046897A00786B46DB
:104E40000222FDF777FC48B9BDF80000AF6040BA18
:104E5000B0FBF9F06F60C6B22F6000E00FE0A76012
:104E600067602760002739E0D8F80010D8F8040000
:104E70006B46C97A00780C22FDF75CFC10B15046F5
:104E8000BDE8FE8FBDF80000236840BA02B2BDF84D
:104E90000200BDF804101A44226040BA626800B2F1
:104EA0001044606049BAA06809B20844A060BDF827
:104EB00006002B6840BA02B2BDF808001A4440BA96
:104EC00001B2BDF80A002A606A6840BA11446960FC
:104ED000A96800B208447F1CFFB2A860B742C3D3E0
:104EE00028688322C117090441EA10410004002305
:104EF000FBF764F932460023FBF760F92860686825
:104F00008322C117090441EA104100040023FBF782
:104F100055F932460023FBF751F96860A8688322EF
:104F2000C117090441EA104100040023FBF746F9C8
:104F300032460023FBF742F9A86020684FF4006571
:104F4000C117090441EA104100042A460023FBF777
:104F500035F932460023FBF731F9206060682A46B4
:104F6000C117090441EA104100040023FBF726F9A8
:104F700032460023FBF722F96060A0682A46C11779
:104F8000090441EA104100040023FBF717F93246F7
:104F90000023FBF713F9A060002802DDA0F58030A4
:104FA00001E000F58030A060002069E7EC000020FF
:104FB0002DE9F84F81462E488846002540686B460B
:104FC000032200780D21FDF7B5FB10B10720BDE8E5
:104FD000F88F9DF80000002400F01F008DF80000FD
:104FE0009DF801006FF00F0B00F01F008DF801001D
:104FF0009DF802006E4600F01F008DF802004FF091
:10500000010A00BF59F8241058F82400081A00D5E6
:105010004042FBF7B8FB5946FBF70AFA0746305DFA
:10502000C0B1144802E01449FBF792F9315D491E02
:1050300011F0FF013155F6D101463846FBF7BAF9B8
:105040004FF07E51FBF77EF90C4920F0004088427A
:1050500005DC07E00A483844B0F1D97F02D90AFAE2
:1050600004F00543641C032CCCDB2846AFE70000AA
:10507000EC0000200000C84154E3853F295C0F3E4E
:105080000000E0BE00B5024600F00DF80346D01C5B
:1050900000F009F843EAC003901D00F004F843EA69
:1050A000801080B200BD90F90010002902DD4FF0A1
:1050B0000000704702DA4FF00400704790F90110C9
:1050C000002902DD4FF00100704702DA4FF00500C1
:1050D000704790F90200002802DD4FF0020070478F
:1050E00002DA4FF0060070474FF0070070470000EB
:1050F000FCF7E6F8FDF7FEFEFDF7B8FBFDF77AFBDF
:10510000FDF772FCFDF73CFCFDF7F4FCFDF7BCFC81
:105110001AA0FEF78FFA2248FEF7C9F92049142297
:1051200018312048FDF7C0F91E480068C16841F0F9
:105130001001C1601C480068C16841F00101C160F4
:1051400000211948FCF710FF04211748FCF70CFF59
:1051500008211548FCF756FF0C211348FCF752FFB5
:105160003C211248FCF720FD3C211148FCF71CFDB6
:10517000FDF75EFB00F07DFFFEE7000048656C6C0C
:105180006F2C74686973206973207A627A277320A0
:1051900062616E6C616E6365206361722E0A00004D
:1051A000842D002058040020C80300208003002024
:1051B0001004002001460020842900D0C81C70473C
:1051C000704700002DE9F041124C20F0010100254C
:1051D00094F8240010B10020BDE8F081A07A4FF0CF
:1051E000FF3668B10840277C2074884200D03546DD
:1051F00041B1012001F0E4F900F0CAFB38B1277495
:105200003046E9E7207D00B1012001F0D9F92846B8
:10521000E2E70000EC0000202DE9F74F8EB00CA96A
:1052200006A8CDE900010BAB07AA04A902A8FFF765
:105230008BF918B1012011B0BDE8F08FBDF818004E
:10524000C0057DD50798FBF79EFA6FF01D04214637
:10525000FBF7EEF882460898FBF795FA2146FBF734
:10526000E7F881460998FBF78EFA2146FBF7E0F84C
:1052700080460A98FBF787FA2146FBF7D9F80546DE
:1052800001215046FBF7D4F806464146FBF760F88B
:1052900004464FF040414846FBF75AF80746294676
:1052A000FBF756F82146FAF7FBFFFBF7F0FAFEF79B
:1052B000E5FC4FF0663B5A46474BFBF76CF9FBF7B2
:1052C000F9FA0E99086001214046FBF7B1F8414612
:1052D0000090FBF73DF8044638464946FBF738F89E
:1052E0002146FBF72FF84FF07E51FAF7D9FFFBF775
:1052F000CEFA07460C4630464946FBF729F80646E3
:1053000029460098FBF724F83146FAF7C9FFFBF766
:10531000BEFA3A462346FEF7F9FE5A462E4BFBF7F5
:105320003AF9FBF7C7FA0F99086029460846FBF7D8
:105330000FF8074641460846FBF70AF8064600E024
:1053400047E049460846FBF703F80446514608463D
:10535000FAF7FEFF2146FAF7A3FF3146FAF7F2FF0C
:105360003946FAF7EFFFFBF792FA06460C46294654
:105370005046FAF7EDFF054641464846FAF7E8FF82
:105380002946FAF78DFF0121FBF752F8FBF77FFA68
:1053900032462346FEF7BAFE5A460F4BFBF7FBF8A0
:1053A000FBF788FA109908600C48BDF810100180CE
:1053B000BDF812104180BDF814108180BDF80810AE
:1053C000C180BDF80A100181BDF80C104181002098
:1053D00031E702202FE7000066A64C406C2D00202C
:1053E00010B5FDF7A5F800F0F1F808B10A2010BDDE
:1053F000782000F0B1FD10F0FF0F01D0012010BDAA
:105400007820FFF7DFFE10F0FF0F01D0022010BD63
:10541000642000F061FD10F0FF0F01D0032010BDEB
:10542000FFF788F810F0FF0F01D0042010BD1448DA
:10543000FFF728FEFFF72EFA10F0FF0F01D005202E
:1054400010BD40F27310FEF74DFF10F0FF0F01D0BA
:10545000062010BD6420FFF785F910F0FF0F01D082
:10546000072010BD01F070F808B1082010BD012020
:1054700000F058FC10F0FF00F8D0092010BD00002B
:10548000180100200D494A7A42B1012A08D0022AA7
:105490000FD0032A0FD04FF0FF307047022200E0F8
:1054A00004220270C97C11B11106C90D01700020DF
:1054B00070470822F5E71022F3E70000EC00002017
:1054C0000F494A7A42B1012A09D0022A11D0032A8F
:1054D00012D04FF0FF3070474FF4804201E041F6A8
:1054E0009C720280C97C11B1C2F34E010180002080
:1054F00070474FF48052F4E74FF40062F1E7000088
:10550000EC0000200B49097A39B1012907D00229A2
:105510000AD003290BD0002103E0FA2101E04FF467
:10552000FA710180002070474FF47A71F9E74FF467
:10553000FA61F6E7EC0000200A49097A41B1012935
:1055400008D002290AD003290AD04FF0FF30704753
:10555000054900E005490160002070470449FAE769
:105560000449F8E7EC0000200000034300008342F8
:1055700033330342333383410C49C97A072913D2A9
:10558000DFE801F01204060A0C0E1000BC2100E056
:1055900062210180002070472A21FAE71421F8E7F0
:1055A0000A21F6E70521F4E70021F2E7EC000020EC
:1055B000054991F8242012B14FF0FF307047C98996
:1055C0000180002070470000EC0000202DE9FC4124
:1055D0004C4C80208DF8000020686B460122817CB5
:1055E00060680078FDF7DCF84FF0FF37002832D113
:1055F0006420FBF731FD00258DF8005020686B46D4
:105600000122817C60680078FDF7CAF8002870D11B
:1056100020686B460622817D60680078FDF78AF875
:10562000002866D19DF805009DF80310C007400FC3
:1056300001F0010140EA41019DF801004FF001062F
:1056400000F00100014309D0012905D0022915D03D
:105650002DA0FDF7EFFF4CE0E67410E020686B46EC
:105660000122C17860680078FDF764F840BB9DF8BE
:10567000000010F00F0020D0042822D0E574FF2095
:1056800004F80A0F4FF6FF7104F8020C04F8010C3D
:105690006070A180A0712072A67026766576E57292
:1056A000A572E56025616561A576E576A5834FF471
:1056B000FA6000F073FB18B907E01D48FDF7BAFF68
:1056C00017E01CA0FDF7B6FFC6E7022000F088FA3D
:1056D00078B92A2000F0CAFB58B9322000F0FCFB50
:1056E00038B90020FFF76EFD18B9002000F0ACFAC1
:1056F00010B13846BDE8FC81002000F02DFC0020F0
:10570000F8E70000EC000020556E737570706F7242
:1057100074656420736F6674776172652070726F50
:1057200064756374207265762025642E0A0000007B
:10573000D081000848616C662073656E7369746976
:1057400076697479207061727420666F756E642E4C
:105750000A0000002DE9FF4FDFF89480064685B06F
:1057600098F8250015460F464FF0FF39B0BBAFB390
:10577000002420E0301B102800DD102080B283467A
:105780003A1901469246204600F042FC30BB6A4678
:105790005946204600F0D2F800BB50465A466946AA
:1057A000FAF771FD20B16FF0010009B0BDE8F08F8C
:1057B00004EB0B0084B2B442DCD3280A8DF810004D
:1057C0008DF81150D8F80000444604AB817ED8F81B
:1057D000040002220078FCF7E3FF08B14846E4E742
:1057E000012084F825000898E0840020DDE700000F
:1057F000EC0000202DE9F84305464FF0FF3928283A
:1058000044D80727284C00267DB1012000F0FCFA7F
:1058100020208DF800004FF00108012D17D0052D34
:1058200018D88DF8018005201FE0002000F0ECFA68
:105830008DF800608DF8017020686B460222817C33
:1058400060680078FCF7ACFF00BB267529E08DF896
:105850000160E8E7142D04D802208DF801000A2029
:1058600003E003208DF80100142000F0FFFA9DF8FA
:1058700001006B4607EB80108DF8010020680222C2
:10588000817C60680078FCF78BFF10B14846BDE86A
:10589000F8830820A072267384F814800020FFF794
:1058A00091FC0020F3E70000EC0000202DE9F84314
:1058B000214C0646174694F8240089464FF0FF38DD
:1058C00090B3A07A80B320686B460222817A606828
:1058D0000078FCF72FFF38BBBDF8000045BAB54291
:1058E00002D2002038701FE060684188B5EB510F8C
:1058F00011D9216800786B46497C0122FCF71AFF18
:1059000090B99DF80000C00605D500F041F86FF091
:105910000100BDE8F8832068F2B24B46C17A6068A6
:105920000078FCF707FF08B14046F2E7B5FBF6F058
:10593000401E38700020ECE7EC000020F8B516009F
:105940000D464FF0FF371FD0104CA17AE1B1010A8C
:105950008DF80010C0B28DF80100411960684289CD
:10596000914211D8216800786B46097E0222FCF72B
:1059700017FF48B92068EAB23346417D6068007875
:10598000FCF7D8FE002800D03846F8BDEC00002017
:10599000F8B5564C4FF0FF36A07A00287DD0002590
:1059A0008DF8005020686B460122C17B606800784A
:1059B000FCF7F6FE002870D120686B460122417981
:1059C00060680078FCF7ECFE002866D120686B4622
:1059D0000122017960680078FCF7E2FE00285CD1C2
:1059E00094F82400E0B30C208DF8000020686B468A
:1059F0000122017960680078FCF7D2FE002872D19C
:105A00003220FBF729FBC0208DF80000A07AC007E8
:105A100002D0E0208DF8000020686B460122017959
:105A200060680078FCF7BCFE00285CD1607C18B18F
:105A300002208DF8000001E08DF8005020686B46D0
:105A40000122C17B60680078FCF7AAFE28BB8DF8B4
:105A5000005020686B4601224179606800783EE082
:105A6000FFE704208DF8000020686B4601220179D1
:105A700060680078FCF794FE78B9A07C90B9A07AB1
:105A8000C0070FD05FF060008DF8000020686B4603
:105A9000012201796068007800E024E0FCF780FED4
:105AA00008BB01E04020EFE73220FBF7D5FA607C2D
:105AB00018B101208DF8000001E08DF80050206839
:105AC0006B460122C17B60680078FCF769FE50B923
:105AD0002068064B01224179606810330078FCF79A
